:020000040800F2
:1000000060700020390300082D3A0008CD2D00084B
:1000100009390008290B00083951000800000000C8
:10002000000000000000000000000000790200084D
:10003000350C000800000000D5020008BD4700088C
:100040005303000853030008530300085303000838
:100050005303000853030008530300085303000828
:100060005303000853030008530300085303000818
:100070002D0B000853030008390B0008450B00083E
:10008000510B0008650B00085303000853030008D8
:10009000530300085303000853030008370C0008FB
:1000A00053030008530300085303000853030008D8
:1000B00053030008530300085303000853030008C8
:1000C00053030008530300085303000853030008B8
:1000D0005303000853030008D54F000835500008AB
:1000E0005303000853030008530300085303000898
:1000F0005303000853030008530300085303000888
:1001000053030008530300088D48000853030008F8
:10011000114B000853030008530300085303000861
:1001200053030008710B0008530300085303000831
:100130005303000853030008530300085303000847
:100140005303000853030008530300085303000837
:1001500053030008850B000853030008E55000080E
:100160005303000853030008530300085303000817
:100170005303000853030008530300080000000065
:10018000530300085303000800F002F800F065F87C
:100190000AA090E8000C82448344AAF10107DA45E2
:1001A00001D100F05AF8AFF2090EBAE80F0013F0CF
:1001B000010F18BFFB1A43F001031847188800000D
:1001C000388800000A444FF0000C10F8013B13F08F
:1001D000070408BF10F8014B1D1108BF10F8015BA0
:1001E000641E05D010F8016B641E01F8016BF9D193
:1001F00013F0080F1EBF10F8014BAD1C0C1B09D1EA
:100200006D1E58BF01F801CBFAD505E014F8016B5B
:1002100001F8016B6D1EF9D59142D6D370470000ED
:100220000023002400250026103A28BF78C1FBD8FF
:10023000520728BF30C148BF0B6070471FB508F098
:100240005EFA00F087FA04000020002107F044FD68
:10025000401C60601FBD10B510BD00F056FA11467D
:10026000FFF7ECFF06F070F900F086FA03B4FFF731
:10027000F2FF03BC00F0CAFA2C4B19680868B0E81A
:10028000F04F80F30988BFF36F8F4FF0000080F3C9
:10029000118870470000000008480068006880F37B
:1002A00008884FF0000080F3148862B661B6BFF38F
:1002B0004F8FBFF36F8F00DF00BF00BF08ED00E07E
:1002C000DFF80C00016841F470010160704700BF65
:1002D00088ED00E0EFF30980BFF36F8F134B1A68CE
:1002E0001EF0100F08BF20ED108A20E9F04F1060BB
:1002F00009B44FF0500080F31188BFF34F8FBFF364
:100300006F8F06F0F1FF4FF0000080F3118809BCF9
:1003100019680868B0E8F04F1EF0100F08BFB0EC85
:10032000108A80F30988BFF36F8F7047EC100020AC
:10033000EFF30580704700000948804709480047EF
:10034000FEE7FEE7FEE7FEE7FEE7FEE7FEE7FEE785
:10035000FEE7FEE704480549054A064B70470000E2
:100360007D4800088901000860600020607000205E
:10037000606800206068002053EA020C00F0698089
:100380002DE9F04B4FF00006002B1FBFB3FA83F5A9
:1003900003FA05F424FA05F65E4012BF1643B2FADA
:1003A00082F502FA05F4C5F120051EBF22FA05FC0C
:1003B00044EA0C04203556EA044C4FEA144418BFB2
:1003C000641C4FF000084FF00009904271EB030CE1
:1003D00039D3002919BFB1FA81F701FA07F6B0FA4B
:1003E00080F700FA07F6C7F120071EBF20FA07FCC6
:1003F00046EA0C062037B6FBF4FCA7EB0507103FD6
:1004000007F01F0BCBF120060CFA0BFB2CFA06F6BB
:1004100044BFB3460026202FA4BF5E464FF0000B1A
:100420005BEA060C08BF4FF0010B19EB0B09ABFBA5
:10043000027C48EB0608C01B06FB02CC0BFB03CC7E
:1004400071EB0C01C1E70B46024641464846BDE848
:10045000F08B13B54FF000004FF00001AFF30080B8
:10046000BDE81C40704770B5064600F0ABF8046864
:10047000054630460A22002100F0B3F82C6070BD1A
:10048000032A40F2308010F0030C00F0158011F8C0
:10049000013BBCF1020F624498BF11F801CB00F898
:1004A000013B38BF11F8013BA2F1040298BF00F8EC
:1004B00001CB38BF00F8013B11F0030300F02580A9
:1004C000083AC0F0088051F8043B083A51F804CBD0
:1004D000A0E80810F5E7121D5CBF51F8043B40F896
:1004E000043BAFF30080D20724BF11F8013B11F8A1
:1004F00001CB48BF11F8012B24BF00F8013B00F8E5
:1005000001CB48BF00F8012B704710B5203AC0F06E
:100510000B80B1E81850203AA0E81850B1E8185004
:10052000A0E81850BFF4F5AF5FEA027C24BFB1E841
:100530001850A0E8185044BF18C918C0BDE81040B2
:100540005FEA827C24BF51F8043B40F8043B08BFBB
:100550007047D20728BF31F8023B48BF11F8012B82
:1005600028BF20F8023B48BF00F8012B70474FF02E
:10057000000200B5134694469646203922BFA0E8F3
:100580000C50A0E80C50B1F12001BFF4F7AF0907FF
:1005900028BFA0E80C5048BF0CC05DF804EB8900F0
:1005A00028BF40F8042B08BF704748BF20F8022B33
:1005B00011F0804F18BF00F8012B7047704770474B
:1005C0007047000000487047FC5F002010B5FFF73F
:1005D000F9FF006810BD10B50446FFF7F3FF046093
:1005E00010BD2DE9F04791460F468046044600268F
:1005F00014F8015B2DB100F031F80068405DC007D0
:10060000F6D12B2D02D02D2D18D0641E4A46394626
:10061000204600F02BF827B13968A14201D1C7F874
:1006200000804FF0020471050BD54042002803DD25
:10063000FFF7C8FF0460A007BDE8F08746F48066B6
:10064000E4E70028F8DAFFF7BDFF04606FF0004030
:10065000F2E7000000487047FC5F002010B500F092
:1006600079F8001D10BD00BF717600002DE9F05F24
:10067000824615468B4600270AF10104B9460078E8
:10068000302801D09DB113E014F8010B0127782820
:1006900003D0582801D045B10AE00DB1102D07D183
:1006A000002714F8010B102502E0082500E00A25B8
:1006B0000026B0460EE005FB080005FB06F1012709
:1006C0001FFA80F801EB1046B6F5803F00D3B9461B
:1006D00014F8010B294600F041F80028EBDABBF1D1
:1006E000000F05D00FB1641E00E05446CBF8004067
:1006F000B9F1000F06D0FFF765FF02210160C81EA7
:10070000BDE8F09F48EA0640FAE77546FFF7A2FF0A
:10071000AE4605006946534620F00700854618B0EE
:1007200020B5FFF717FEBDE820404FF000064FF060
:1007300000074FF000084FF0000B21F00701AC4616
:10074000ACE8C009ACE8C009ACE8C009ACE8C00935
:100750008D467047004870471C6000203A2800D240
:10076000303820F02002412A01D3A2F1370088421C
:1007700001D34FF0FF30704710B50446AFF300804F
:100780002046BDE81040FFF771BD00004FF0013C6E
:1007900050F8042B51F8043B9A4221D1A2EB0C03F0
:1007A000934313EACC1317D150F8042B51F8043BB0
:1007B0009A4215D1A2EB0C03934313EACC130BD14D
:1007C00050F8042B51F8043B9A4209D1A2EB0C03D8
:1007D000934313EACC13DBD04FF00000704700BF07
:1007E000D01A01BAB1FA81F101F0180122FA01F030
:1007F000CB40C1F12001DBB2C0B2C01A2CFA01F328
:10080000D11A914311EAC311E6D17047014918206A
:10081000ABBEFEE726000200704700002A4B10B571
:1008200093ED150A294903F19802BCEEC00A486805
:1008300010EE104A22F81040401C4860032841DBAB
:100840000020486011885088814208D39488A042D3
:1008500005D300EE100AB8EE400A83ED160A92881E
:10086000824207D3884205D300EE100AB8EE400A50
:1008700083ED160A884207D3914205D300EE101A81
:10088000B8EE400A83ED160A8A4207D3814205D3A7
:1008900000EE101AB8EE400A83ED160A914207D313
:1008A000824205D300EE102AB8EE400A83ED160A04
:1008B000904207D38A4205D300EE102AB8EE400AD0
:1008C00083ED160A10BD00004C220020BC10002051
:1008D00030B549490868002814D00868012811D0AB
:1008E000086802280ED0086803280BD0434800226D
:1008F00003684348052B06DC00214318491CDA70C5
:100900004F29FADB30BD00240519EB78552B0ED1A9
:100910002B790A2B0BD16B7A052BAB7A05D0022BE6
:1009200005D00B68012B1CD001E0022B0BD0641CFE
:100930004F2CE9DD0021431893F85C40052C2CD0A6
:10094000552C34D114E003460021C467DC6FE51850
:10095000CC1C2C5D5D18491C85F85C400E29F5DD2A
:10096000E8E700214318491CDA704F29FADD30BD51
:1009700093F85D300A2BD0F8803008D0BBB100234B
:10098000C4185B1C84F85C204F2BF9DD0FE0002BB2
:10099000F5D10123C0F8803009E0D0F88050012D56
:1009A00005D1052C03D193F85D40022C03D0491CDE
:1009B0000F29C0DD30BD014491F85E4010498431FB
:1009C0000C8093F85F304B8043EA042100EE101A4C
:1009D0000021B8EE400A80ED150A4318491C83F83F
:1009E0005C201D29F9DD00214318491CDA704F29CC
:1009F000FADDC0F8802030BDBC100020900000203F
:100A00004C22002009220249024802F01FB90000CE
:100A1000CE1000206816002070B52E4D286858B9F9
:100A20000A2205F108012C4802F010F9642000F0B8
:100A3000EFFA2868401C2860286801280BD1254956
:100A40000A221B31244802F001F9642000F0E0FA88
:100A50002868401C28602868022831D100201F4CDB
:100A600006462118401CCE704F28FADD19490A228B
:100A70002531194802F0EAF81FE000216018C27819
:100A8000432A17D10279612A14D142796C2A11D1F3
:100A90008279692A0ED1C279622A0BD1027A722A2E
:100AA00008D1427A612A05D1427B4F2A02D1807B4C
:100AB0006B2806D0491C4F29E0DD28680228DCD0CD
:100AC00070BD0420286000202118401CCE704F28E3
:100AD000FADDF2E7BC100020681600204C2200204E
:100AE00070B50F4C0F4D94ED160A10EE100AA84287
:100AF00006DCB5EEC00AF1EE10FA01D003F034FEC8
:100B000094ED160A10EE100AA84204DCB5EEC00AF5
:100B1000F1EE10FA03D1BDE8704003F033BE70BDB2
:100B20004C22002000008C42FEE70000014800F04B
:100B3000FDB8000008190020014800F0F7B80000D7
:100B400068190020014800F0F1B800008817002063
:100B500010B502F0CFF8BDE81040014800F0E6B84B
:100B600048180020014800F0E1B80000A818002053
:100B700010B502F02DF9BDE81040014800F0D6B8DC
:100B8000281A0020014800F0D1B80000C819002040
:100B900001681823CAB2103AB2FBF3F2054B6FF3A7
:100BA0000901032A9B5CC36500D9091D81650846BC
:100BB00070470000A887000810B5014600208B6927
:100BC0008A6A4FF0C07453B1B3F5005F15D072B1AB
:100BD000012A0CD0022A0AD0032A09D104E01AB152
:100BE000012A06D0022A03D1C96AC90100D5012011
:100BF00010BDC96AA142FAD010BD002AF7D0012A5F
:100C0000F2D0022AF3D0032AF3D010BD30B5046825
:100C1000256825F480252560046863608368402B7F
:100C2000036803D099600068C26030BD9A600068B4
:100C3000C16030BD7047802000F006BA10B53C217D
:100C4000094801F0CFF93C21084801F0CBF90648EA
:100C50000068C16841F00101C16004480068C168D2
:100C600041F00101C16010BD00150020B814002042
:100C700072B6FEE72DE9F0410446876D00F0EEFA0A
:100C8000064694F835000025022806D080206065CD
:100C900084F834500120BDE8F0812068016821F01B
:100CA000160101602068416921F080014161206CDA
:100CB00008B9A06C20B12068016821F0080101602A
:100CC0002068016821F0010101600CE000F0C6FA23
:100CD000801B052807D920206065032084F8350093
:100CE00084F83450D7E720680068C007EED194F844
:100CF0005C103F208840B860012084F8350084F8FB
:100D000034500020C7E790F83510022903D0802125
:100D1000416501207047052180F8351000680168A1
:100D200021F0010101600020704700002DE9F84327
:100D300004464FF00009CDF8009063484FF4165177
:100D4000A56D0068B0FBF1F72E6894F85C100820E0
:100D500000FA01F131420FD021680A6852070BD521
:100D60000A6822F004020A6094F85C108840A860C7
:100D7000606D40F00100606594F85C104FF0010870
:100D800008FA01F0304208D021684969090604D503
:100D9000A860606D40F00200606594F85C1004206B
:100DA0008840304208D021680968890704D5A860C6
:100DB000606D40F00400606594F85C10102088407D
:100DC000304218D021680968090714D5A860206846
:100DD0000168490304D50068000308D5A16C07E049
:100DE0000168C90503D4016821F008010160216C84
:100DF00009B12046884794F85C1020208840304292
:100E000031D021680968C9062DD5A86094F835004D
:100E100005282068016806D0490347D5006800030B
:100E20001DD4616C1CE021F016010160206841694D
:100E300021F080014161206C08B9A06C20B12068CC
:100E4000016821F00801016094F85C103F2088409F
:100E5000A86084F8358084F83490216D1FE0E16B40
:100E600009B120468847606D00282BD0606DC0070F
:100E700014D0052084F835002068016821F00101B4
:100E800001600098401C0090B84203D820680068B8
:100E9000C007F6D184F8358084F83490E16C0029DD
:100EA00010D001B02046BDE8F04308470168C905ED
:100EB000D5D4016821F01001016084F8358084F8F0
:100EC0003490CCE7BDE8F883741000202DE9F041A0
:100ED000044600F0C3F906465CB1022084F83500F0
:100EE000002584F834502068016821F00101016078
:100EF0000DE00120BDE8F08100F0B0F9801B05286D
:100F000005D920206065032084F83500F2E72068C9
:100F10000068C007F0D12268116820480140D4E978
:100F200001031843D4E90336334318436369184374
:100F3000A3691843E3691843236A18430843616AA5
:100F4000042903D1D4E90B13194308431060206826
:100F50004069666A20F0070130460E4301270428E5
:100F60000CD1A06A0643E06A40B12046FFF724FE98
:100F700020B14020606584F83570BAE7206846618A
:100F80002046FFF705FE94F85C203F2191408160E8
:100F9000656584F835700020ACE700003F8010F0F4
:100FA0002DE9F0410446866D90F8340000250128B3
:100FB0000DD0012084F8340094F835700020012F02
:100FC00007D084F8340002252846BDE8F0810220CD
:100FD000FBE7022784F8357060652046FFF716FEB0
:100FE00094F85C103F208840B0602068016841F0B0
:100FF00016010160206C20B12068016841F00801F1
:1010000001602068016841F001010160DCE7000037
:1010100070B5044600F022F90546601C02D0044871
:101020000078044400F01AF9401BA042FAD370BDC6
:1010300094000020802803D102480168491C016007
:101040007047000050000020044910B50A680242B1
:1010500002D00860FFF7EEFF10BD0000143C014015
:101060002DE9F84FDFF8BCA10022012503264FF03F
:101070000F090AF1040BAAF1040E00BF0B6805FA70
:1010800002F42340A34270D10F7907F00307012F28
:1010900001D0022F16D187684FEA420806FA08FCF1
:1010A00027EA0C07D1F80CC00CFA08FC4CEA070C34
:1010B000C0F808C04768A7430C79C4F300149440F3
:1010C0003C4344600C79E443A4070AD0C4684FEA67
:1010D000420C06FA0CF7BC438F6807FA0CF727435B
:1010E000C7600C7904F00304022C12D1D40800EB81
:1010F000840CDCF820405707FF0E09FA07F824EAB1
:101100000804D1F8108008FA07F848EA0408CCF877
:10111000208004684FEA420C06FA0CF7BC430F79B2
:1011200007F0030707FA0CF7274307604C6814F42D
:10113000403F70D03C4C276847F4804727602468C4
:1011400022F0030704F480440094384C07EB040CAD
:10115000DCF8084897074FEA177809FA08F7BC4304
:10116000334FB84202D1002724E054E0314FB84257
:1011700001D101271EE0304FB84201D1022719E00A
:101180002E4FB84201D1032714E02D4FB84201D1B0
:1011900004270FE02B4FB84201D105270AE02A4F60
:1011A000B84201D1062705E0284FB84201D10727F0
:1011B00000E0082707FA08F72743CCF80878DAF8A0
:1011C00000405746D1F804C09C435FEACC2C00D5C0
:1011D0001C433C60DBF800405F46D1F804C09C43F0
:1011E0005FEA8C2C00D51C433C60DEF8004077465B
:1011F000D1F804C09C435FEA8C3C00D51C433C60A2
:10120000084F083F3C68D1F804C09C435FEACC3CDF
:1012100000D51C433C60521C102AFFF42FAFBDE8E0
:10122000F88F0000083C0140443802400030014083
:10123000000002400004024000080240000C02408E
:10124000001002400014024000180240001C02403E
:101250000AB1816170470904FBE70000014880681A
:101260007047000094000020024881680278114411
:1012700081607047940000200B4810B5016841F46C
:1012800000710160016841F480610160016841F40E
:1012900080710160032000F09FF80F2000F006F835
:1012A00000F050F8002010BD003C024030B505466B
:1012B0001F4887B00024016841F008010160006800
:1012C00006A900F00800009001A800F031F9049888
:1012D000A8B100F04DF940001649174AB0FBF1F1F2
:1012E0001648491E026040F2E732C0E90324C0E913
:1012F0000114846100F044FD040003D015E000F007
:1013000037F9E9E70D4800F089FD04000DD13220DE
:1013100000F034F8102D07D200222946322000F0C8
:101320003BF80748056000E0012407B0204630BDC7
:101330004038024040420F00000C0040881A002054
:10134000980000200C4882B0016841F4804101609F
:10135000006800F4804000900748001F016841F0D9
:10136000805101600068002200F0805000900F2141
:10137000901E02B000F010B844380240002809DB8B
:1013800000F01F02012191404009800000F1E0209F
:10139000C0F8001170470000F0B40E4B1B680C46FB
:1013A000C3F30223C3F10705042D00D90425191D39
:1013B000072901D2002300E0DB1E012606FA05F111
:1013C000491E214099409E40761E16403143F0BC94
:1013D00004F01AB80CED00E0064900F007020868B6
:1013E0004FF6FF03184040EA0220034A104308600A
:1013F000704700000CED00E00000FA052DE9F04711
:101400000E46050065D0DFF81481D8F80000F7B269
:1014100000F00700B04207D288F80070D8F800004A
:1014200000F00700B04254D128683D4C810712D526
:10143000400703D5206840F4E0502060287800077A
:1014400003D5206840F4604020602068A96820F03F
:10145000F000084320602878C0072DD03049686824
:101460000839012812D0022813D0032811D00968A6
:10147000890700292DDA216821F003010143216049
:10148000FFF7ECFE814641F2883A0EE009688903D5
:10149000EFE709688901ECE7FFF7E0FEA0EB09013F
:1014A000514502D90320BDE8F0872068696800F043
:1014B0000C00B0EB810FEFD1D8F80010404601F0DE
:1014C0000701B14207D90770006800F00700B04279
:1014D00001D00120E7E72878400705D52068E968B2
:1014E00020F4E050084320602878000706D52068E3
:1014F000296920F4604040EAC100206000F058F8FB
:101500002168084AC1F30311515CC84006490860CC
:1015100006480068FFF7CAFE0020C4E7003C02400E
:1015200008380240BA870008741000209800002094
:101530000F2202600C4A136803F003034360136830
:1015400003F0F0038360136803F4E053C360126890
:101550004FF4E05303EAD20202610448006800F04D
:10156000070008607047000008380240003C024055
:101570000448054900680968044AC1F38221515CA6
:10158000C84070477410002008380240CA8700081D
:101590000448054900680968044AC1F34231515CB6
:1015A000C84070477410002008380240CA870008FD
:1015B000154810B5006810F00C02144813D01449F7
:1015C000042A0FD0082A0ED10F4C241F226823684A
:1015D00002F03F025B0207D52068C0F38810A0FB31
:1015E000010106E0084610BD2168C1F38811A1FB86
:1015F00000010023FEF7C0FE2168C1F30141491C30
:101600004900B0FBF1F010BD083802400024F4009E
:1016100040787D012DE9F84F04006ED02078DFF886
:101620004C93C007A9F104054AD009F104000168F0
:10163000C1F38101012908D00068C0F381000228AC
:101640000AD1D9F80000400206D52868800337D5B2
:1016500060680028E1D033E06068B0F5803F10D0CA
:10166000B0F5A02F286810D020F4803028602868BA
:1016700020F4802028606068A8B1FFF7EFFD0646DF
:101680000DE0286840F48030F4E740F480202860C2
:10169000F7E700BFFFF7E2FD801B642873D82868D6
:1016A0008003F7D50CE0FFF7D9FD064605E000BF43
:1016B000FFF7D4FD801B6428F0D828688003F7D496
:1016C0002078DFF8AC8280074FF0000A3ED5A748AB
:1016D000001D016811F00C0F08D00068C0F38100F4
:1016E00002280BD1D9F80000400207D428688007EF
:1016F00016D5E068012800D112E033E1E068B8B106
:101700000120C8F80000FFF7A9FD064605E000BF6C
:10171000FFF7A4FD801B0228C0D828688007F7D5F2
:101720002868216920F0F80040EAC10028600DE037
:10173000C8F800A0FFF792FD064604E0FFF78EFD13
:10174000801B02281FD828688007F7D4207800075C
:1017500022D5864F87486169703771B101210160D8
:10176000FFF77CFD064604E0FFF778FD801B0228AA
:1017700009D838688007F7D50EE0C0F800A0FFF759
:101780006DFD064605E082E0FFF768FD801B02283C
:101790007DD838688007F7D42078400768D5DFF80F
:1017A000CCB100270BF13C0BDBF80000C0000BD4E0
:1017B000DBF8001041F08051CBF80010DBF800009E
:1017C000012700F0805000906B4E3068C00510D4A7
:1017D000306840F480703060FFF740FD009005E015
:1017E000FFF73CFD0099401A022850D83068C00528
:1017F000F6D55E4EA0686C3601280FD005283068FB
:1018000010D020F001003060306820F0040030601B
:10181000A068B8B1FFF722FD00900FE0306840F0FB
:101820000100F4E740F004003060F7E7FFF716FD31
:101830000099411A41F28830814266D830688007A9
:10184000F4D50EE0FFF70AFD009007E0FFF706FD74
:101850000099411A41F28830814256D83068800799
:10186000F4D42FB1DBF8001021F08051CBF8001038
:10187000A069C8B33D49091D0968C1F38101022966
:101880004AD00228504607D0C8F8600000E03CE08B
:10189000FFF7E4FC04463BE04746C8F86000FFF76A
:1018A000DDFC064605E000BFFFF7D8FC801B0228E0
:1018B0002BD828688001F7D4D4E907010843A16A2E
:1018C0002E4A490802EB0141626A41EA821108434B
:1018D00094F82C1040EA0161C9F800100120386624
:1018E000FFF7BCFC044606E03EE000BFFFF7B6FC95
:1018F000001B022809D828688001F7D534E000BF12
:10190000FFF7ACFC001B022802D90320BDE8F88FCA
:1019100028688001F4D427E00128F7D0D9F8000026
:10192000E26900F4800191421CD1226A00F03F017B
:10193000914217D147F6C071626A0140B1EB821F34
:1019400010D1A26A4FF0FF3300F4403103EB520292
:10195000B1EB024F06D194F82C1000F07060B0EBA0
:10196000016F01D00120D1E70020CFE70438024009
:1019700000004742800E4742007000400000FFFF19
:1019800070B5040009D0606A002540B12561656129
:10199000A56294F8510040B10CE0012070BD606870
:1019A000B0F5827FF4D0E561F2E784F8505020462C
:1019B00000F044F8022084F851002068016821F00A
:1019C00040010160A088218900F4827001F4044183
:1019D0000843A18901F400610843217C01F0020160
:1019E0000843217D01F001010843218B01F40071BE
:1019F0000843217F01F03801084394F8201001F0DA
:101A000080010843218D01F40051084321680860DA
:101A1000A069042101EA104094F8241001F010019B
:101A20000843216848602068C16921F40061C161F0
:101A30006565012084F85100002070BD10B586B0A6
:101A4000044614216846FEF792FD14492068884236
:101A500021D113480021026842F4804202600068EC
:101A600000F4804005900E481038026842F00202EF
:101A70000260006800F0020005904FF460400090A2
:101A80000220CDE90101032003900520049069465E
:101A90000448FFF7E5FA06B010BD0000003800402A
:101AA00040380240000402402DE9FF4F81B01D463E
:101AB000934604464FF001090E9EFFF7CFFB074601
:101AC00094F851006168012806D0B1F5827F3CD1BD
:101AD000A168C9BB042838D10298002871D0BBF195
:101AE000000FFBD0002DF9D094F8500001282CD025
:101AF0004FF0010A84F850A094F85100042802D055
:101B0000052084F851004FF00008C4F85480C4F850
:101B100038B0E587A58702992163E586A586C4F8D4
:101B20004080C4F8448020680168490603D40168F5
:101B300041F040010160E068B0F5006F606808D0D6
:101B4000F0B3012D49D081E0FFE7022005B0BDE8E8
:101B5000F08F08B1012D39D1206B21680088C86051
:101B6000206B801C2063E08E401EE0862EE0206803
:101B7000816889070FD5E18E69B1B9F1010F0AD1EA
:101B8000216B0988C160206B801C2063E08E401EA1
:101B9000E0864FF0000920688168C9070CD0E18F0A
:101BA00051B1C068A16B0880A06B801CA063E08F5E
:101BB000401EE0874FF00109FFF750FBC01B01E01A
:101BC0000BE067E0B04201D3701C50D1E08E0028DA
:101BD000CDD1E08F0028CAD13EE0206B216800788B
:101BE0000873206B401C2063E08E401EE0862DE0D1
:101BF0002068816889070FD5E18E69B1B9F1010FBD
:101C00000AD1216B09780173206B401C2063E08EA0
:101C1000401EE0864FF0000920688168C9070CD09B
:101C2000E18F51B1C068A16B0870A06B401CA0632C
:101C3000E08F401EE0874FF00109FFF70FFBC01B4C
:101C4000B04202D3701C01D011E086B1E08E0028B2
:101C5000CED1E08F0028CBD13A463146204602F063
:101C600089FC50B12020606584F8508012E084F82F
:101C700051A084F85080032068E7A06818B9206854
:101C8000C1688068009084F851A084F85080606D2D
:101C90000028F1D0012059E77047704710B590F83F
:101CA0003C20012A22D0012280F83C20CA688C689E
:101CB00022F4407222434C6822F4806222430C6872
:101CC00022F4006222430C6922F4805222434C69C0
:101CD00022F400522243C969002322F480420A43BD
:101CE00001684A6480F83C30002010BD022010BD1D
:101CF00070B590F83C20012A32D0012480F83C4095
:101D0000022280F83D2003685A689D6822F0700620
:101D10000A6832435A60134B02689A4214D0B2F1F7
:101D2000804F11D0104B9A420ED0104B9A420BD0DC
:101D30000F4B9A4208D00F4B9A4205D00E4B9A4255
:101D400002D00E4B9A4204D1496825F08003194312
:101D5000916080F83D40002180F83C10084670BD3D
:101D6000022070BD00000140000400400008004057
:101D7000000C0040000401400040014000180040F9
:101D800010B5040003D094F83D0010B107E0012025
:101D900010BD002084F83C00204600F01FF802200F
:101DA00084F83D00211D206802F076FD012084F8B2
:101DB000460084F83E0084F83F0084F8400084F830
:101DC000410084F8420084F8430084F8440084F819
:101DD000450084F83D00002010BD000008B50C4A05
:101DE00001680C48914207D1016841F4003101605B
:101DF000006800F4003009E0074A914207D1016809
:101E000041F480210160006800F48020009008BD4A
:101E100000440140443802400048014090F83D1021
:101E2000012901D001207047022180F83D1001688E
:101E3000CA6842F00102CA6000681149884214D0A1
:101E4000B0F1804F11D00F4988420ED00E49884220
:101E50000BD00E49884208D00D49884205D00D4963
:101E6000884202D00C49884204D1816801F0070100
:101E7000062903D0016841F001010160002070478C
:101E8000000001400004004000080040000C004039
:101E90000004014000400140001800402DE9F041DD
:101EA0000D46040003D094F83D0018B108E001206D
:101EB000BDE8F081002084F83C00204600F040F8A6
:101EC000022084F83D002068816844F207029143B3
:101ED0008160211D206802F0DFFC22689068916912
:101EE000166A2B68AF69034340F20330814341EA2D
:101EF0000721A868EF6908434FF6FC418843E96869
:101F000040EA0720014328692F6A000140EA0730B0
:101F1000084369686D6926F0AA0646EA0515294353
:101F200093602268906154F8460B0162012004F826
:101F30001F09E0752076E0762077A0750020B7E7CE
:101F400030B587B0044614216846FEF710FB2148DF
:101F500024681F4D00221F4910380223AC4216D1BD
:101F60000C6844F002040C60096801F0020105915C
:101F7000016841F0010101600068694600F001005C
:101F80000590C0200090CDE90132134819E0134DAF
:101F9000AC421AD10C6844F004040C60096801F0EA
:101FA00004010591016841F008010160006869467B
:101FB00000F0080005904FF440500090CDE9013248
:101FC0000748CDE90323FFF74BF807B030BD000009
:101FD0000004004040380240000002400008004079
:101FE000000C024070B590F83E60044690F83F50F7
:101FF00090F8423090F84320022021B104290ED0FD
:10200000012E1BD114E0012E18D1012B16D184F81A
:102010003E0084F8420001220021206820E0012DCA
:102020000CD1012A0AD184F83F0084F8430014E05F
:10203000012D03D1012B01D1012A01D0012070BD56
:1020400084F83E0084F83F0084F8420084F843009E
:1020500001220021206802F08BFC0122042120686B
:1020600002F086FC2068016841F001010160002057
:1020700070BD70472DE9F04104460068C6680569E7
:102080004FF00007A90713D5B10711D5F91E01615B
:1020900001202077206880698007204602D0FFF762
:1020A000E8FF04E000F00CF9204600F0D1F92777B2
:1020B000680716D5700714D521686FF00400086111
:1020C000022020772068806910F4407F204602D0EB
:1020D000FFF7CFFF04E000F0F3F8204600F0B8F976
:1020E0002777280715D5300713D521686FF008002A
:1020F0000861042020772068C0698007204602D04C
:10210000FFF7B7FF04E000F0DBF8204600F0A0F98D
:102110002777E80616D5F00614D521686FF0100071
:102120000861082020772068C06910F4407F2046AD
:1021300002D0FFF79EFF04E000F0C2F8204600F056
:1021400087F92777E80708D0F00706D021686FF0F5
:1021500001000861204600F0E1F9280608D53006A4
:1021600006D521686FF0800008612046FFF794FDD6
:10217000680608D5700606D521686FF04000086132
:10218000204600F0D5F9A8060AD5B00608D5216882
:102190006FF0200008612046BDE8F041FFF77DBDEB
:1021A000BDE8F081F0B587B0044614216846FEF71B
:1021B000DEF9394E236800223849022401253848C7
:1021C000B3420AD10B6843F010030B60096801F0B9
:1021D000100105914FF4904158E0B3F1804F14D0B5
:1021E000304F0325BE15BB4224D1086840F00400DF
:1021F000086008680096CDE9014200F00400CDE9CE
:10220000045069460392284810E0086840F0010035
:1022100008600868694600F0010005904FF400402E
:102220000090CDE901422148CDE90325FEF718FFD2
:1022300007B0F0BD1E4FBB4209D10B6843F010033D
:102240000B60096801F01001059160211EE0194F33
:102250001948BB420ED10B6843F002030B600968BA
:102260000096CDE9014201F00201CDE9045103924B
:102270006946DBE7114EB342DAD10B6843F0020343
:102280000B60096801F00201059171150091CDE91B
:1022900001426946C8E700000000014030380240B2
:1022A000001002400004014000080240000002400B
:1022B0000040014000440140000402400048014049
:1022C000704770B5044690F83C0000260D46012882
:1022D0000FD0012084F83C006AB1042A1DD0082ADE
:1022E0002FD00C2A3FD00126002084F83C00304635
:1022F00070BD022070BD206802F048FB2068816933
:1023000041F0080181612068816921F00401816147
:10231000206881692A69114311E0206802F066FB98
:102320002068816941F4006181612068816921F43C
:1023300080618161206881692A6941EA02218161A5
:10234000D2E7206802F088FB2068C16941F00801EB
:10235000C1612068C16921F00401C1612068C169BF
:102360002A69114311E0206802F0AAFB2068C169C4
:1023700041F40061C1612068C16921F48061C161DB
:102380002068C1692A6941EA0221C161ACE710B540
:10239000040003D094F83D0010B107E0012010BD07
:1023A000002084F83C00204600F01EF8022084F84B
:1023B0003D00211D206802F06FFA012084F84600DC
:1023C00084F83E0084F83F0084F8400084F841001F
:1023D00084F8420084F8430084F8440084F84500FF
:1023E00084F83D00002010BD08B5154A0168154865
:1023F000914207D1016841F001010160006800F0DD
:1024000001000CE0B1F1804F0BD00F4A91420BD18B
:10241000016841F002010160006800F002000090D4
:1024200008BD0848001FE5E7084A9142F8D1016855
:1024300041F480310160006800F48030EFE7000073
:1024400000000140443802400004014000400140C7
:102450007047000010B50446022249B104290ED08D
:10246000082913D094F84100012816D0012010BD8E
:1024700094F83E000128F9D184F83E200FE094F84A
:102480003F000128F2D184F83F2008E094F8400092
:102490000128EBD184F8402001E084F8412001229A
:1024A000206802F065FA16492068164A884201D071
:1024B000904203D1436C43F4004343642068884254
:1024C00013D0B0F1804F10D00F4988420DD00F4982
:1024D00088420AD00E49884207D0904205D00D4963
:1024E000884202D00C49884204D1816801F007017A
:1024F000062903D0016841F001010160002010BDF0
:1025000000000140000401400004004000080040B9
:10251000000C0040004001400018004000680349E2
:10252000884201D1FEF7A0BE70470000000C0040B9
:102530007047704710B504460068406994F8411030
:10254000C0F3C010212911D180B12068143050E8A7
:10255000001F21F0800140E80012002AF5D1A06B95
:1025600008B1FEF787FB204602F0DAFB20684069DD
:1025700094F84210C0F38010222911D180B1206854
:10258000143050E8001F21F0400140E80012002AFA
:10259000F5D1E06B08B1FEF76DFB204602F099FB28
:1025A000002010BD70470000F8B5016804460868B7
:1025B000CA684B6910F00F0F4FF0000559D003F0B7
:1025C000010602F49077374365D0C10705D0D105E5
:1025D00003D5616C41F001016164410705D5D9075C
:1025E00003D0616C41F002016164810705D5D90710
:1025F00003D0616C41F004016164010707D502F06A
:102600002001314303D0616C41F008016164616CC9
:1026100000293AD0800604D5900602D5204602F063
:102620008DFB20684069616CC0F38010090700D4FD
:1026300060B3204602F04DFB20684069400621D57A
:102640002068143050E8001F21F0400140E80012DB
:10265000002AF5D1E06BA8B16E490165E06BFEF789
:1026600052FB002811D0E06B016D01B0BDE8F040D5
:10267000084783060FD593060DD52046BDE8F840E0
:1026800002F05CBB2046FFF78DFFF8BD2046FFF748
:1026900089FF6564F8BD266B2023012E7DD1C60617
:1026A0007BD5D60679D508684868009048694FF010
:1026B0000206400641D5E16B086840680004000C42
:1026C000E8D0A28D8242E5D9E085C869B0F5807F67
:1026D0002DD020680C3050E8001F21F4807140E8B4
:1026E0000012002AF5D12068143050E8001F21F0B4
:1026F000010140E80012002AF5D12068143050E8AA
:10270000001F21F0400140E80012002AF5D184F8B2
:102710004230256320680C3050E8001F21F0100182
:1027200040E80012002AF5D1E06BFEF7A3FA6663D9
:10273000A08DE18D401A81B22AE0A08DE18D401A72
:1027400081B2E08D0028A5D00029A3D022680C32E8
:1027500052E8000F20F4907042E80007002FF5D1F6
:102760002068143050E8002F22F0010240E80027D2
:10277000002FF5D184F84230256320680C3050E8F2
:10278000002F22F0100240E80023002BF5D16663F1
:102790002046FFF7CEFEF8BDFFE705062BD5150650
:1027A00029D594F841002128F5D1A068B0F5805FC3
:1027B00001D12069B0B1206A411C216221680078F2
:1027C0004860E08C401E0004000CE084E3D12068E7
:1027D000C16821F08001C1602068C16841F04001FA
:1027E000C160D8E7206A0088C0F308004860206A0A
:1027F000801C2062E5E74006CDD55006CBD5CA68DF
:10280000204622F04002CA6084F8413000F05AFAB3
:10281000C1E70000894B000870B5040004D094F8AB
:102820004100002510B106E0012070BD84F8405041
:10283000204600F023F8242084F841002068C16875
:1028400021F40051C160204602F0DAFA20680169E3
:1028500021F4904101612068416921F02A01416120
:102860002068C16841F40051C1606564202084F88B
:10287000410084F842006563002070BD2DE9F04FEF
:1028800087B0044614216846FDF771FECC48DFF896
:102890002C831038D4F800C0C94B032102224027F2
:1028A000002506154FF0080A4FF00069C44552D1C3
:1028B000D3F800C04CF4002CC3F800C01B6803F42C
:1028C00000230593036843F001030360006800F0F0
:1028D000010005908DE82600CDE9031A6946B94844
:1028E000FEF7BEFBDFF8E482B7494046C8F808703F
:1028F000C0E90356C8F81450C8F81850C0E90019C8
:10290000F101C8E90751C8F82450FEF7DFFA08B111
:10291000FEF7AEF9AD4FAC48C4F8388060373038B8
:10292000C8F838403860C7E90195C7E903567D61AA
:10293000BD61FD613D6238467D62FEF7C7FA08B1B0
:10294000FEF796F9E763002201213420BC63FEF70D
:1029500023FD342065E0DFF87882DFF878E24FF07D
:10296000070BC44562D1D3F800C0A8464CF4003C24
:10297000C3F800C01B6803F400330593036843F0F9
:10298000080303600068CDE9025100F008000590DB
:102990006020CDE90002CDF810B069467046FEF720
:1029A0005FFBDFF828A288490AF1C00A18315046B7
:1029B000CAF80010C0E90195C0E90356CAF81450DE
:1029C0004FF48031CAF81850CAE90751CAF82450A8
:1029D000FEF77CFA08B1FEF74BF97F4DC4F83CA036
:1029E0007948CAF838403030AF60C5E90009C5E918
:1029F0000386C5F81480C5F81880C5F81C80C5F892
:102A000020802846C5F82480FEF760FA08B1FEF75A
:102A10002FF9A563002202212620AC63FEF7BCFC3F
:102A20002620FEF7ABFC07B0BDE8F08FDFF8AC81E5
:102A3000C4455CD1D3F800C04CF4802CC3F800C06E
:102A40001B6803F480230593036843F008030360C5
:102A50000068CDE9025100F0080005904FF4407085
:102A6000CDE90002CDF810B069467046FEF7F8FADD
:102A7000DFF864A154490AF1600A48395046CAF89F
:102A80000010C0E90195C0E903568915CAF8145031
:102A9000C0E90651CAF82050B046CAF82450FEF7E3
:102AA00015FA08B1FEF7E4F84B4EC4F83CA0C03666
:102AB000CAF83840C6E90275C6E904854248B561DE
:102AC0001838C6E900094FF40030C6E9075030460F
:102AD0007562FEF7FBF908B1FEF7CAF8A66300229B
:102AE00011462720B463FEF757FC272099E73C4B9B
:102AF0009C4598D1324B1B1DD3F800C04CF0200CE4
:102B0000C3F800C01B6803F020030593036843F07B
:102B1000040303600068CDE9025100F00400059051
:102B2000C020CDE90002CDF810A069462D48FEF77F
:102B300097FADFF8B8802C494046C8F80870C0E919
:102B40000356C8F81450C8F81850C8F81C504FF075
:102B50002069C8F82050C8E90019C8F82450FEF7C9
:102B6000B5F908B1FEF784F8204F1F48C4F8388043
:102B700060377838C8F838403860C7E90195C7E948
:102B800003567D61BD61FD613D6238467D62FEF7A1
:102B90009DF908B1FEF76CF8E76300220321472096
:102BA000BC63FEF7F9FB4720FEF7E8FB0022114665
:102BB0004720FEF7F1FB472033E70000004C0040C0
:102BC0004038024000000240706002408817002038
:102BD00000440040000C0240A818002000480040BB
:102BE0000014014000080240A0640240C8190020FF
:102BF00090F84230202B01D00220704721B11AB149
:102C00000023036302F082B90120704790F842303C
:102C1000202B01D00220704721B11AB10023036399
:102C200002F0BCB90120704700680449884204D111
:102C3000502203490348FFF7E9BF704700100140E5
:102C40004F220020681600207047000070B504462F
:102C500090F84100202801D0022070BD49B342B352
:102C60002162A284E28400206064212384F8413040
:102C7000A56B114BEB63A56B104B2B64A56B104B35
:102C8000EB64A36B1865256813462A1DA06BFEF73D
:102C900087F921686FF0400008602068143050E820
:102CA000001F41F0800140E80012002AF5D1002009
:102CB00070BD012070BD0000874C0008C94C0008A1
:102CC000994B00087047704700210A464318491C79
:102CD00089B2DA701629F9D35521817002704270D9
:102CE00003489FED020A80ED070A704700000000CC
:102CF000702100202148417816293ED3817B9FED29
:102D0000200A552913D1C17B532910D1017D427D61
:102D10009FED1C1A41EA022109B200EE901AF8EE6A
:102D2000E00A60EE800A60EE810AC0ED070AC17811
:102D3000552922D1017952291FD1C279017A9FEDFB
:102D4000121A42EA012109B200EE901AF8EEE00AE6
:102D500060EE800A60EE810AC0ED080A427A817A4C
:102D600042EA012109B200EE901AF8EEE00A20EEE4
:102D7000800A20EE010A80ED090A704770210020C8
:102D800000000038000034430000FA4410B50A2265
:102D90000C490D48FFF75AFFC820FEF739F90949D9
:102DA0000A220F310848FFF751FF40F6B830FEF70E
:102DB0002FF904490A22BDE810400A310248FFF702
:102DC00045BF000054100020B0160020FEE70000B0
:102DD00030B54A484178212971D3494B00229FEDF3
:102DE000490A00BF02EB420101EBC20101448578B0
:102DF000CC78AC4263D10C79512C06D0522C22D025
:102E0000532C3ED0592C73D15AE051F8054F5C61D8
:102E1000496899613A4C00211434B3EE001A00BF9E
:102E200034F9115000EE905A00EB8105491CF8EE80
:102E3000E00AC9B2032960EE800A60EE810AC5ED9E
:102E40000C0AEDD354E051F8054FDC614968196272
:102E50002B4C0021DFED2C0A1C3400BF34F911503B
:102E600001EE105A00EB8105491CB8EEC11AC9B237
:102E7000032921EE001A21EE201A85ED0F1AEDD359
:102E800036E051F8054F5C62496899621C4C00219C
:102E9000DFED1E0A243400BF34F9115001EE105A40
:102EA00000EB8105491CB8EEC11AC9B2032921EE15
:102EB000001A21EE201A85ED091AEDD318E01CE066
:102EC00051F8054FDC62496819630D4C00212C3420
:102ED00034F9115000EE905A00EB8105491CF8EED0
:102EE000E00AC9B2042960EE800AC5ED1D0AEFD3DD
:102EF000521CD2B2042AFFF475AF30BDD01A0020A4
:102F0000A0000020000000380000FA440000344314
:102F1000012291020148FEF79BB90000000802401F
:102F200070B53B4D2DED048B31EE408A31EEE00A59
:102F300085ED1E8A85ED1F0A10EE100A05F06EFB66
:102F400041EC190B18EE100A05F068FB41EC100B70
:102F5000B0EE491AF0EE691A02F0D2FB9FED2D1B7C
:102F600051EC100B53EC112B05F064F99FED2B1B6A
:102F700053EC112B04F0ACFF04F0D0FE00EE100A6D
:102F800005F18004DFED270A84ED000A264930EEC2
:102F9000C00A10EE100A84ED010A884205D9DFED5F
:102FA000230A30EE200A84ED010A95ED1E0AD5EDC4
:102FB0001F0A1F4D20EE000A00EEA00A10EE100AB4
:102FC00084ED020AA84214DBF2EE040A104B80EEF4
:102FD000201A9FED180A103B1A1F31EE000ABDEEB1
:102FE000C00A10EE101A10EE100A94ED010A03F058
:102FF0003BFFA068A84207DABDEC048B002108461D
:10300000BDE8704000F0E5BCBDEC048B70BD000075
:10301000B8010020000000000080664000000000B1
:10302000FA210940000034C3000034C30000B44357
:103030000000A04000007A450948DFED0A0A90ED43
:103040001D0A0948B8EEC00AD0ED001A074870EE14
:10305000C00A90ED001A9FED060AFFF761BF00005D
:10306000B80100200000F0424C0000204800002081
:103070000000DC4270B50D462749F3EE040AA1F1C9
:1030800080048B685B1C95428B6000DD5B4200EE28
:10309000103AB8EEC00A80EE201A00EE105AB8EED0
:1030A000C00A31EE000ABDEEC00A10EE103A84EDFF
:1030B0001F0A9A1A5243042A0BDB1848B8EEC00ABA
:1030C000D0ED070A41F28830014603F0FDF80020F8
:1030D00070BD012807D050B102280CD003280ED0B3
:1030E000042810D016E0A06F401CA06712E008680A
:1030F000401C08600EE04868401C48600AE02068F8
:10310000401C206006E000200861CA68521CC1E92A
:1031100002024861012070BDB8010020702100202A
:10312000254808B5016841F400110160016801F407
:1031300000110091016841F48001016000680022E3
:1031400000F48000009005210C20FEF725F90C20EA
:10315000FEF714F9002211460E20FEF71DF90E208D
:10316000FEF70CF9002205210F20FEF715F90F20BC
:10317000FEF704F9002205211020FEF70DF91020BA
:10318000FEF7FCF8002205211120FEF705F91120B9
:10319000FEF7F4F8002205213920FEF7FDF839206A
:1031A000FEF7ECF8002205214520FEF7F5F8BDE812
:1031B00008404520FEF7E2B83038024010B5A4B010
:1031C0001C2221496846FDF7A0F90021684603F05A
:1031D00014FB1E4C1C491C2260611C3107A8FDF722
:1031E00094F9002107A803F008FB1749A0611C22ED
:1031F00038310EA8FDF789F900210EA803F0FDFA79
:103200001149E0611C22543115A8FDF77EF9002117
:1032100015A803F0F2FA0C4920621C2270311CA898
:10322000FDF773F900211CA803F0E7FA6062E0697A
:1032300003F0F4FFA06903F0F1FF0348083803F03E
:10324000D4FA206124B010BD1C870008540000206F
:103250002DE9F04F87B014216846FDF788F94B48F7
:103260000024016841F010010160016801F01001C3
:103270000591016841F004010160016801F0040159
:103280000591016841F080010160016801F0800151
:103290000591016841F001010160016801F001013F
:1032A0000591016841F002010160016801F002012D
:1032B0000591016841F0080101600068DFF8D090D5
:1032C00000F008004FF43447059000223946484684
:1032D000FDF7BEFF0122DFF8BCA096023146504642
:1032E000FDF7B6FF4FF40048002241465046FDF777
:1032F000AFFFDFF8A4B0002231465846FDF7A8FF23
:10330000802000904FF404100125CDE901056946A5
:103310004846FDF7A5FE68028DE83100694648463B
:10332000FDF79EFE0097CDE9015469464846039497
:10333000FDF796FE0220CDE90240CDE90065694621
:103340005046FDF78DFEE8028DE831006946504693
:10335000FDF786FE0320CDE90240CDE900856946F0
:103360005046FDF77DFE0096CDE90154694658466A
:103370000394FDF775FE002205211720FEF70CF8D7
:103380001720FDF7FBFF07B0BDE8F08F3038024093
:1033900000100240000C024000080240104810B526
:1033A0000E4901604FF48271416000218160C1606B
:1033B0004FF400720161C0E905121022C0E9072133
:1033C000416281620A21C162FEF7DAFA002803D065
:1033D000BDE81040FDF74CBC10BD000000380040B7
:1033E000D013002010B588B01C216846FDF7BFF847
:1033F000154814490024016040F28F61C0E90114AE
:1034000040F2CF71C0E903148461FEF7B9FC08B142
:10341000FDF72EFC0C48FEF7BAFF08B1FDF728FCBB
:103420006020CDE900040294002269460648049415
:10343000FEF747FF08B1FDF71BFC0348FEF7B2FE9D
:1034400008B010BD00440140D815002010B588B068
:103450001C216846FDF78BF81648154900240160C9
:1034600040F28F61C0E9011440F2CF71C0E903144A
:1034700080218161FEF784FC08B1FDF7F9FB0D485E
:10348000FEF785FF08B1FDF7F3FB60200090732085
:10349000CDE901040022694606480494FEF711FFB5
:1034A00008B1FDF7E5FB0348FEF77CFE08B010BD50
:1034B000004801402016002010B592B000240F945F
:1034C0001C2168461094FDF752F8202107A8FDF74B
:1034D0004EF82548234901600121C0E9011444F256
:1034E0009F11C0E903148021C0E90541FEF74FFF99
:1034F00008B1FDF7BDFB0F940FA91B481094FEF710
:10350000F7FB08B1FDF7B4FB6020CDE9000402949D
:103510000394049405940422694613480694FEF724
:10352000D0FE08B1FDF7A4FB0C2269460E48FEF759
:10353000C8FE08B1FDF79CFB0794089409944FF46A
:1035400000500A94CDE90B4007A907480E94FEF7F6
:10355000A5FB08B1FDF78CFB0348FEF723FE12B074
:1035600010BD0000000001402814002010B58AB0F2
:10357000002407941C2168460894FCF7F8FF1748BC
:103580004FF08041016040F24731C0E9011440F240
:10359000CF71C0E9031480218161FEF7F8FE08B104
:1035A000FDF766FB079407A90C480894FEF7A0FBFB
:1035B00008B1FDF75DFB602000909B20CDE9010480
:1035C0000022694605480494FEF77BFE08B1FDF72A
:1035D0004FFB0248FEF7E6FD0AB010BD7014002054
:1035E00010B58CB024216846FCF7C1FF00241648B2
:1035F000099414490A94C0E900144FF6FF71C0E918
:103600000241046184610320CDE900040120CDE979
:1036100002040494CDE90540079469460A480894D9
:10362000FEF73CFC08B1FDF723FB099409A9064805
:103630000A94FEF75DFB002801D0FDF719FB0CB0E2
:1036400010BD000000040040B814002010B58CB07C
:1036500024216846FCF78BFF00241648099414497E
:103660000A94C0E900144FF6FF71C0E902410461F9
:1036700084610320CDE900040120CDE90204049413
:10368000CDE90540079469460A480894FEF706FC10
:1036900008B1FDF7EDFA099409A906480A94FEF766
:1036A00027FB002801D0FDF7E3FA0CB010BD0000A5
:1036B000000800400015002010B592B000240F94BF
:1036C0001C2108A81094FCF752FF20216846FCF743
:1036D0004EFF22482049016040F28F61C0E9011489
:1036E00040F2CF71C0E903148021C0E90541FEF723
:1036F0004EFE08B1FDF7BCFA0F940FA917481094BD
:10370000FEF7F6FA08B1FDF7B3FA60200890D5206D
:10371000CDE909040B940C940D94082208A90F48D4
:103720000E94FEF7CEFD08B1FDF7A2FA00944FF417
:103730000050CDE90440029401940394694607487F
:103740000794FEF7ABFA08B1FDF792FA0348FEF7CB
:1037500029FD12B010BD00000004014048150020F2
:1037600010B588B01C216846FCF701FF18481749BE
:103770000024016040F28F61C0E9011440F2CF7172
:10378000C0E9031480218161FEF701FE08B1FDF755
:103790006FFA60200090DC20CDE901040022694628
:1037A0000B480494FEF78DFD08B1FDF761FA502037
:1037B0000190042269460648FEF783FD08B1FDF733
:1037C00057FA0348FEF7EEFC08B010BD0040014078
:1037D000901500200E4810B50C4901604FF4E131FE
:1037E0004160002181600C22C160C0E90412816146
:1037F000C161FFF711F808B1FDF73AFABDE81040D2
:10380000502204490248FFF701BA0000004C004072
:10381000681600204F22002010B5114C0F480C21D3
:1038200020604FF4E13060600020A060E060C4E9F7
:103830000401A061E0612046FEF7EEFF08B1FDF74C
:1038400017FA2068C16841F01001C160BDE810405E
:10385000162204490248FFF7CBB90000004400409B
:10386000B01600207321002010B5114C0F480C2118
:1038700020604FF4E13060600020A060E060C4E9A7
:103880000401A061E0612046FEF7C6FF08B1FDF724
:10389000EFF92068C16841F01001C160BDE8104037
:1038A000642204490248FFF7A3B900000048004021
:1038B000F8160020A021002010B5114C0F480C2153
:1038C00020604FF4165060600020A060E060C4E902
:1038D0000401A061E0612046FEF79EFF08B1FDF7FC
:1038E000C7F92068C16841F01001C160BDE810400F
:1038F000212204490248FFF77BB90000001401406F
:1039000040170020D31A0020FEE700002DE9F04107
:1039100004464FF4004144F2A010124DCF10124E55
:10392000844203DDC44201DA00240EE0002C0CDDE9
:1039300000222846FDF78CFC012239462846FDF777
:1039400087FC30680464BDE8F08101222846FDF759
:103950007FFC002239462846FDF77AFC3168604238
:103960000864F0E700100240281400202DE9F0411F
:1039700004464FF4005144F2A010124DCF10124EE5
:10398000844203DDC44201DA00240EE0002C0CDD89
:1039900001222846FDF75CFC002239462846FDF747
:1039A00057FC30688463BDE8F08100222846FDF7AB
:1039B0004FFC012239462846FDF74AFC3168604237
:1039C0008863F0E700100240281400200146AFF39E
:1039D000008010B50C4643F698225142904201DD1A
:1039E000104602E0884200DA0846944201DD14469F
:1039F00002E08C4200DA0C46FFF788FF2046BDE863
:103A00001040FFF7B3BF00210846FFF7E2BF0000F8
:103A100010B504210448FEF71DFDBDE810400C213F
:103A20000148FEF717BD000028140020FEE7000043
:103A30001CB50FA10522D1E90001CDE900016946BD
:103A4000302000F0AFF805226946102000F048F859
:103A5000002069460A5CA52A03D1401CC0B2052893
:103A6000F8D3052801D001201CBD00201CBD00009A
:103A7000A5A5A5A5A500000070B5174D4FF40044FD
:103A8000002221462846FDF7E3FB0F21202000F00D
:103A9000B5F80121212000F0B1F80121222000F029
:103AA000ADF82821252000F0A9F80F21262000F0EC
:103AB000A5F82021312000F0A1F8052207492A208D
:103AC00000F070F8012221462846FDF7C1FBBDE851
:103AD00070400120FDF79CBA000C0240B587000839
:103AE0002DE9F047DFF8449015460F4604464FF4A1
:103AF0008068002241464846FDF7AAFB21460C4853
:103B000000F0CAFD0646002406E0FF21084800F048
:103B1000C3FD3855641CE4B2AC42F6D301224146E1
:103B20004846FDF795FB3046BDE8F087000C0240A3
:103B3000D013002070B50C4E04464FF4806500226F
:103B400029463046FDF784FB2146084800F0A4FDD5
:103B5000FF21064800F0A0FD044601222946304618
:103B6000FDF776FB204670BD000C0240D01300200C
:103B700070B505460720FFF7DDFF04460146272004
:103B800000F03CF860060AD5202229466120FFF7A4
:103B9000A7FFFF21E22000F031F8002070BD0120D6
:103BA00070BD00002DE9F047DFF8489016460D463D
:103BB00004464FF48068002241464846FDF748FB22
:103BC00021460D4800F068FD0746002407E000BFCD
:103BD00015F8011B084800F05FFD641CE4B2B44214
:103BE000F6D3012241464846FDF732FB3846BDE890
:103BF000F0870000000C0240D01300202DE9F041B6
:103C00000D4E0F4604464FF480650022294630468B
:103C1000FDF71EFB2146094800F03EFD04463946EB
:103C2000064800F039FD012229463046FDF710FB19
:103C30002046BDE8F0810000000C0240D0130020B7
:103C400009484FF4FF6100220180418082600749EA
:103C5000104666230B54401C0A28FBDD14200A542E
:103C6000401C2028FBDD7047781B0020541B0020DF
:103C700070B52DED028B00F057F95A4D40F2E73246
:103C80004FF4FF606988A1F2DD51914200D2688053
:103C90002988A1F2D171632900D22880A888A0F2D6
:103CA0009570312802D24FF4F560A880E888A0F220
:103CB00009703B2802D24FF4E660E880A8885A21B8
:103CC000A0F5F56048434FF4016190FBF1F6464CD6
:103CD0005A21E660E888A0F5E660484340F688018E
:103CE00090FBF1F0206104F07AFA41EC180B3046B9
:103CF00004F075FA41EC100BB0EE481AF0EE681AB9
:103D000001F0FEFC9FED391B51EC100B53EC112B15
:103D100004F090FA9FED371B53EC112B04F0D8F808
:103D20009FED361B53EC112B04F08EFB03F0F6FFD6
:103D300000EE100A334910EE100A84ED000A084420
:103D40003149884205D2DFED310A30EE200A84ED98
:103D5000000A10EE100A2E49884203DC2949C943A3
:103D6000884203D99FED2B0A84ED000AA888DFED75
:103D70002A0A00EE100AE8889FED281AB8EE400AD9
:103D8000274930EE600A60EE000A00EE100AB8EE35
:103D9000400A70EE411A00EE100AB8EE400A30EE0A
:103DA000410A41EE800A10EE900A884204DB94ED4D
:103DB000000A84ED050A03E094ED050A84ED000A8B
:103DC0006888094BC000A0F57F50A06194ED000AFF
:103DD0000833BDEC028B1A1FBDE87040014603F0AA
:103DE00043B80000781B0020000000200000000005
:103DF00000806640112D4454FB2109400000000062
:103E000000805640FFFFCB3CFFFF52000000B44350
:103E100000003443000000000000F5440000E644C8
:103E200090E4504A10B500F07FF81B4840F2E733A9
:103E30004FF4FF614288A2F2DD529A4200D24180E3
:103E40000288A2F2D172632A00D201808188A1F295
:103E50009571312902D24FF4F5618180C188A1F2B8
:103E600009713B2902D24FF4E661C1804188C388C1
:103E7000A1F5FF61C1EBC10101EB8300074AC3F566
:103E8000E66301EB8301A0F5E650C2E90601BDE857
:103E90001040FFF79EBD0000781B002000000020AE
:103EA00010B500F041F800F01BF80B4801680B4812
:103EB000062908D007290DD1006800280AD1BDE8DD
:103EC0001040FFF7D5BE0068002803D1BDE81040C0
:103ED000FFF7A8BF10BD0000D4000020E0000020C4
:103EE00007480068002809D0012807D10548006864
:103EF000002803D100210846FFF76BBD7047000082
:103F0000E0000020DC00002010B50648FFF730FE7E
:103F10000448807F002803D00249012024318860B2
:103F200010BD0000541B00202DE9F0475D482DED29
:103F3000028BFFF71DFE5B4C207F012804D1207D02
:103F4000022808D100F0F6FB207F20B9207D01284F
:103F500001D100F0F9FBA07F534DDFF84881002725
:103F6000B3EE048A08F12408A5F1100606283DD115
:103F700000F008FC0620306084F8207000204146E4
:103F8000221852782A542A78401C00EE102A05285C
:103F9000B8EE400A20EE080ABCEEC00A10EE102A65
:103FA0000A806A7800EE102AB8EE400A20EE080A6D
:103FB000BCEEC00A10EE102A4A80AA7800EE102A41
:103FC000B8EE400A20EE080ABCEEC00A10EE102A35
:103FD0008A80EA7800EE102AB8EE400A20EE080A3D
:103FE000BCEEC00A10EE102ACA80C9DDA07F4FF0D7
:103FF0000109072846D100F0C5FB0720306084F88E
:10400000207000204146221852782A542A78401CF9
:1040100000EE102A0528B8EE400A20EE080ABCEE91
:10402000C00A10EE102A0A806A7800EE102AB8EE54
:10403000400A20EE080ABCEEC00A10EE102A4A80A0
:10404000AA7800EE102AB8EE400A20EE080ABCEE6C
:10405000C00A10EE102A8A80EA7800EE102AB8EE24
:10406000400A20EE080ABCEEC00A10EE102ACA80F0
:10407000C9DD607F012801D018B103E0C6F80490C3
:1040800000E07760E07E012806D0002800D1B7600C
:10409000BDEC028BBDE8F087C6F80890C6F80C901E
:1040A000F6E70000541B0020E4000020F0B51C4A95
:1040B000194D1A49106AB5F8583021F81030401CD3
:1040C0001062062826DB00242346A1F580601462D6
:1040D00031F813605B1C50F826707F1C40F8267086
:1040E000042BF5DD916A012650F826308B4201DD64
:1040F0001946EE65761C322EF6DB91625FF0000108
:1041000040F82140491CFF29FADD9FED060A82EDA7
:10411000090A9462F0BD0000A0210020841F002045
:10412000EC000020000000002DE9F0410446414869
:10413000C26BB2F5A07F05DDFFF765FCBDE8F0417D
:10414000FEF7E6BE002A73DD3B4D3C492B685B1C45
:104150002B6021F81320042B6ADB00221346DFF8C2
:10416000E0C02A6001E0002214E001EB420731F8D0
:1041700012507E88B5420CD900EE105AB8EE400AB3
:104180008CED000ABCEEC00A21F8126010EE105A45
:104190007D80521CC3F103059542E6DC5B1C042BB9
:1041A000E1DB284B012200BF31F81250D3ED000AA9
:1041B00000EE105A521C032AB8EE400A30EE200AD4
:1041C00083ED000AF0DBF6EE000A214D20EE200A16
:1041D000DFED1D0A80ED100AC3ED000ADFED1B0ABA
:1041E00030EE600A85ED040A02F03AFB00EE100A98
:1041F00000EE904A01EE104AB8EEC00AF8EEE00A6E
:10420000B8EEC11A85ED070A70EEC00A31EE000A59
:10421000C5ED060A85ED050ABDE8F041FDEEE00AB0
:10422000BDEEC00A10EE901A10EE100AFFF7D1BBD7
:10423000BDE8F081A02100203C00002054110020A6
:104240004000002044000020000000000000204347
:10425000EC0000202DE9F843FFF728FF714D0027FF
:10426000714CE86D012809D12760676000F034FACD
:1042700000F06AFA00F086FA02F0F0F8E86D022821
:104280000BD12760676000F06FFA42F22830FFF729
:104290004BFF00F021FA00F057FAE86D01260328E1
:1042A0000BD141F27C50FFF73FFF00F04DFA00F0D8
:1042B00077FA276000F000FA6660E86D4FF00A08B0
:1042C00004281BD100F050FA00F03EFA00F0F4F997
:1042D000FFF799FB26606660FCF702FCA068401CB3
:1042E00090FBF8F2A06008FB120038B94FA006223C
:1042F0000068009069464E48FEF7A8FCE86D052866
:1043000009D100F031FA00F015FA00F0D5F9FFF705
:104310007AFB27606760E86D062809D100F024FA6F
:1043200000F012FA00F0D0F9FFF76DFB266066602E
:10433000E86D072809D100F025FA00F005FA00F031
:10434000CBF926606660FFF75EFBE86D082819D19F
:1043500000F0C2F900F008FA00F0F6F92660666095
:10436000FEF76AFEA068401C90FBF8F2A06008FB14
:10437000120038B92FA006220068009069462C4828
:10438000FEF764FCE86D092807D100F0A5F9FEF7F7
:1043900053FE00F0D9F927606760E86D41F65838A0
:1043A0000A280AD100F098F94046FFF7BDFE00F058
:1043B000DBF900F0C9F926606660E86D0B2808D1CA
:1043C00000F08AF94046FFF7AFFE00F0CDF900F0AB
:1043D000BBF9E86D0C2814D1E06848B91648E660CE
:1043E00090ED000A80ED020A90ED050A80ED040AC6
:1043F00000F062F900F0C6F900F0A6F90F48FFF7E7
:10440000E5FAE86D0D280AD102F028F8E76000F01F
:1044100063F900F0A9F9BDE8F84300F095B9BDE8EB
:10442000F8830000A021002020000020610000008F
:10443000F8160020620000003C21002090E8FFFFF9
:104440000B4860EE800A90ED022A32EE002A80EDE1
:10445000022A41EE020A90ED031A80ED030A30EEC3
:10446000411A41EE810ABDEEE00A10EE100A7047D3
:104470007C10002000B50A4800F018F800EE100A81
:10448000084B0948B8EEC00A83ED070A00F00EF8A1
:1044900000EE100AB8EEC00A83ED080A00BD000065
:1044A000001500203C210020B81400200168486A53
:1044B000002200B24A62704770B51E46154600F0F1
:1044C0004BFF95ED000A2748DFED280AF8EEC01AE9
:1044D00090ED072A9FED241AB0EE600A244C02EEFC
:1044E000010A31EEC00A84ED0F0A90ED082AD6EDDC
:1044F000001A42EE010AF8EEE11A71EEE00AC4ED8C
:10450000100A02F0A5F900EE100AB8EEC00A84ED18
:10451000110A94ED100A02F09BF900EE100AB8EEB1
:10452000C00A84ED120A95ED000AD4ED110AB8EE26
:10453000C00A30EE200ABDEEC00A85ED000A96EDF5
:10454000000AD4ED120AB8EEC00A30EE200ABDEE21
:10455000C00A10EE101A31602868BDE87040FFF7FD
:1045600038BA00003C21002066A6A64300007A4429
:10457000EC000020F8B515460E460B4600920446A6
:104580000122022100F02CF8A0B913481349006859
:10459000B0FBF1F04FF47A71484300906068B0F5D9
:1045A000827F0DD13346002280212046009500F005
:1045B00017F870B1606D40F0200060650320F8BD11
:1045C000009830B1401E009020688068C04300060B
:1045D000F6D50020F8BD00007410002000366E01F2
:1045E0002DE9F8431E46914688460446089DFCF78F
:1045F00035FE401B351AFCF731FE0746254800689A
:10460000C0F3CB30684338E0701C37D0FCF726FE8F
:10461000C01BA84203D215B1009860B32CE02068FB
:10462000416821F0E00141606068B0F5827F0BD104
:10463000A068B0F5004F02D0B0F5806F04D12068BB
:10464000016821F040010160A06AB0F5005F09D166
:104650002068016821F4005101602068016841F47C
:1046600000510160012084F85100002084F85000BE
:104670000320BDE8F8830025401E00902068816873
:1046800038EA010004D000214945BDD10020F0E7FF
:104690000121F9E7741000203EB5FF248DF80810C1
:1046A000012301AA02A90094FDF7FEF908B18DF8D3
:1046B00004409DF804003EBD0249A82009684863F3
:1046C00070470000701400200249C0200968486348
:1046D000704700007014002002499920096848635F
:1046E000704700007014002010B500210C48FDF741
:1046F000B1FE04210A48FDF7ADFE00210948FDF78F
:10470000A9FE00210848FDF7A5FE00210748FDF796
:10471000A1FEBDE8104008210548FDF79BBE000042
:1047200090150020D81500202016002070140020BD
:10473000481500200348F52102689163006837217D
:10474000416370479015002005480168491C0160CD
:1047500004485021026891630068DC21416370477E
:1047600078100020901500200449732009684863E0
:104770000349D5200968C86370470000201600204F
:10478000481500200449AA20096848630349962077
:104790000968C863704700002016002048150020F3
:1047A00004498220096848630349BE200968C86338
:1047B00070470000201600204815002010B550203A
:1047C00080F31188BFF34F8FBFF36F8F03F0F0F8C2
:1047D00018B104494FF080500860002080F3118820
:1047E00010BD000004ED00E030B593B03021684604
:1047F000FBF7BDFE14210CA8FBF7B9FE1D480025F0
:10480000016841F080510160006800F08050119013
:104810001948016841F4804101600068022400F4F5
:104820008040119001200390102004900094069481
:104830000820CDE90750A820CDE9090404200B90F9
:104840006846FCF7E7FE08B172B6FEE70CA90F2038
:1048500081E831004FF4A0500F904FF48050109039
:1048600005210CA8FCF7CAFD002801D072B6FEE7AE
:1048700013B030BD4038024000700040024801686B
:1048800041F470010160704788ED00E00148FDF7D8
:10489000F1BB0000881A0020F0B50268294C2A4DAF
:1048A0002A4E2B4F2B4B4FF0804CA04209D0604535
:1048B00007D0A84205D0B04203D0B84201D09842F8
:1048C00004D122F0700E4A6842EA0E02A0421BD0C8
:1048D000604519D0A84217D0B04215D0B84213D0C5
:1048E000984211D01C4DA8420ED01C4DA8420BD0AE
:1048F0001B4DA84208D01B4DA84205D01A4DA84216
:1049000002D01A4DA84203D122F44075CA682A4346
:104910004D6922F080022A4302608A68C2620A68F6
:104920008262A04201D0984201D10969016301214C
:1049300041610169C90703D0016921F001010161E9
:10494000F0BD0000000001400004004000080040ED
:10495000000C0040000401400040014000440140C0
:104960000048014000180040001C004000200040AA
:1049700010B501F01F030121046A99408C430462C1
:10498000016A9A401143016210BD0000F0B5036A4C
:10499000026A22F00102026242688469124E24F027
:1049A00073050C682C4323F002058B682B430D4DD7
:1049B000A84201D0B04205D123F00807CB683B43A1
:1049C00023F00403A84201D0B04205D14D6922F47E
:1049D000407215438A692A43426084614968416391
:1049E0000362F0BD0000014000040140F0B5026A1E
:1049F000036A23F010030362436884690D6824F49A
:104A0000E64444EA05248D6822F0200242EA0512B9
:104A10000F4D104EA84201D0B04206D1CF6822F00F
:104A2000800242EA071222F04002A84201D0B042BE
:104A300007D14D6923F4406343EA85038D6943EA56
:104A4000850343608461496881630262F0BD0000B0
:104A50000000014000040140F0B5026A036A23F43B
:104A6000807303624368C46922F4007224F0730502
:104A70000C68124E2C438D6842EA05220E4DA84266
:104A800001D0B04206D1CF6822F4006242EA072288
:104A900022F48062A84201D0B04207D14D6923F4CC
:104AA000405343EA05138D6943EA05134360C4612B
:104AB0004968C1630262F0BD00000140000401408A
:104AC00030B5046A026A22F4805202624268C36905
:104AD0000D6823F4E64343EA05238D6824F400546B
:104AE00044EA0534084DA84202D0084DA84204D13A
:104AF0004D6922F4804242EA85124260C3614968EE
:104B00000164046230BD0000000001400004014067
:104B1000F8B5154800680168144CC1F30011C1B123
:104B2000134D2968491C29600168002640680090DF
:104B30000D48FDF7FFFC0F4800684068C0F16400B5
:104B40002861FBF7C5FE00202118401CCE704F28BD
:104B5000FADD5022E11C0448FEF758F8BDE8F840A1
:104B60000148FDF721BD0000681600204C220020FE
:104B700080000020E8170020FBF750FEFBF742FF03
:104B8000642002F03BFAF7E710B5806B0021C18585
:104B9000C184FDF707FD10BD70B5846B20684069C6
:104BA00094F84110C0F3C0100025212904D118B198
:104BB000E584204600F0B4F82068406994F842107B
:104BC000C0F38010222904D118B1E585204600F0F9
:104BD00080F8606C40F0100060642046FDF7E2FC55
:104BE00070BD10B50146806B096809684FF000027E
:104BF000C9052ED4C28501680C3151E8003F23F469
:104C0000807341E80034002CF5D10168143151E87B
:104C1000003F23F0010341E80034002CF5D1016886
:104C2000143151E8003F23F0400341E80034002CE8
:104C3000F5D1202180F84210016B012909D10168CA
:104C40000C3151E8003F23F0100341E80034002C00
:104C5000F5D14263016B012902D0FDF7E5FF10BDDC
:104C6000818DFDF766FC10BD10B5806B012141639D
:104C7000016B012902D0FDF7E7FF10BD818D4908C6
:104C8000FDF757FC10BD10B50146806B0968096837
:104C9000C90516D40021C1840168143151E8002FE0
:104CA00022F0800241E80023002BF5D101680C318D
:104CB00051E8002F42F0400241E80023002BF5D1DB
:104CC00010BDFDF7FFFF10BD10B5806BFDF7FBFFBA
:104CD00010BD01680C3151E8002F22F4907241E8B8
:104CE0000023002BF5D10168143151E8002F22F088
:104CF000010241E80023002BF5D1016B012909D104
:104D000001680C3151E8002F22F0100241E8002325
:104D1000002BF5D1202180F842100021016370475B
:104D200001680C3151E8002F22F0C00241E8002355
:104D3000002BF5D1202180F84110704708B590F87C
:104D40004210222901D0022008BD82684FF480530E
:104D50009A4201D1016921B1816A9A421BD04AB1BC
:104D60000AE00268816A5268C2F308020A80816A16
:104D7000891C08E0026972B10268526802F07F0281
:104D80000A70816A491C8162C18D491E0904090C9F
:104D9000C18503D01BE002685268F1E70168CA6868
:104DA00022F02002CA600168CA6822F48072CA60D8
:104DB00001684A6922F001024A61202180F842100C
:104DC00000214163026B012A03D0FDF72DFF002073
:104DD00008BD016301680C3151E8002F22F0100278
:104DE00041E80023002BF5D101680A68D20602D5FC
:104DF0000A6849680091818DFDF79BFBE7E7000099
:104E000070B5044600680169E26821F4405111431D
:104E100001612169A068E26908436169114308439F
:104E20002168CA6849F20C639A430243CA60206849
:104E30004169A26921F440711143416131492068FF
:104E4000884202D03049884202D1FCF7A1FB01E040
:104E5000FCF78EFBE2690023192164253226B2F5A6
:104E6000004F626828D0A0FB0101930F9200FBF76E
:104E700083FA0146B0FBF5F06FF01802504301EBE6
:104E8000800006EB0010B0FBF5F000F0F002B1FB83
:104E9000F5F002EB0012B1FBF5F06FF01803584388
:104EA00001EB800006EB0010B0FBF5F000F00F0006
:104EB00021681044886070BDA0FB010192185B411D
:104EC000FBF75AFA0146B0FBF5F00201B1FBF5F031
:104ED0006FF01803584301EB800006EBC000B0FBF5
:104EE000F5F000F0F80002EB4002B1FBF5F058439A
:104EF00001EB800006EBC000B0FBF5F000F007000E
:104F0000D6E70000001001400014014038B581626E
:104F100004468285002013466064222284F84220E1
:104F2000E56B1B4AEA63E56B1A4A2A64E56B1A4A89
:104F3000EA64E26B10650A462168E06B091DFCF724
:104F40002FF82068016840680090206948B1206807
:104F50000C3050E8001F41F4807140E80012002A34
:104F6000F5D12068143050E8001F41F0010140E8FD
:104F70000012002AF5D12068143050E8001F41F0DB
:104F8000400140E80012002AF5D1002038BD0000A1
:104F9000E34B0008694C0008994B00088162828548
:104FA000C28500214164222180F84210016921B1AB
:104FB0000168CA6842F48072CA6001684A6942F0B6
:104FC00001024A610068C16841F02001C16000200F
:104FD0007047000038B5134800680168124CC1F3EF
:104FE0000011A9B11149CA68521CCA600168416820
:104FF0000091016840680B48FDF79CFA0C48006876
:105000004068C0F116006070FDF774FE012020704A
:105010001622E11C0348FDF7EBFDBDE838400148CE
:10502000FDF7C2BAB01600207021002080000020D9
:1050300048180020F8B5244E7068401C7060234862
:1050400000680168C1F3001199B33168491C3160EF
:1050500001680024406800901C48FDF76BFA1C486A
:10506000006840681B4DC0F16400287001F0E2FA4E
:105070002878194A194960B9B068401CB06000200E
:105080000C54401C3B28FBDD00201454401C2728F6
:10509000FBDD2878192809D900201454401C192850
:1050A000FBDD00200C54401C3B28FBDD0C4901209B
:1050B0000870642209490548FDF79AFDBDE8F840EB
:1050C0000248FDF771BA000080000020F8160020A9
:1050D000081900207C00002004220020A0210020CC
:1050E0007D00002038B5114800680168104CC1F3FC
:1050F000001189B1016841680091016840680B485E
:10510000FDF718FA0B4800684068C0F12100607094
:10511000FDF75EFE012020702122E11C0348FDF70F
:1051200067FDBDE838400148FDF73EBA4017002052
:10513000D01A0020281A0020FEE700210A46431852
:10514000491C89B2DA702129F9D355218170027086
:1051500042707047134D144C4FF0FF3631462069B2
:1051600002F0CAFA1149124800F024F800231A4646
:105170001946206902F010FA2068401C2060FEF7F2
:10518000C3FEA868012808D1206A02F047F8E06948
:1051900001F0D0FFA06902F041F8052001F02EFFD8
:1051A000DCE70000781B0020540000204C000020A9
:1051B000480000202DE9F04107462DED068B0E46F4
:1051C0005D4890ED070A9FED5D8A20EE080ADFED4D
:1051D0005C0A5C4D80EE201A85ED011AFFF74AF952
:1051E000594CF1EE0A0A94ED070A20EE200A20EE4F
:1051F000081A9FED560AC1EE008A94ED081A61EE76
:10520000200A60EE880A80EE808A18EE100A03F009
:1052100005FA41EC190B686803F000FA41EC100B39
:1052200000F066FB53EC192B51EC100B03F002F865
:1052300041EC190B18EE900A03F0F0F941EC1A0B4F
:10524000686803F0EBF941EC100B00F051FB53ECF4
:105250001A2B51EC100B02F0EDFF53EC192B02F05E
:105260008FFD9FED3BAB53EC1A2B02F0E3FF41ECBB
:10527000190B606903F0D2F953EC192B02F080FD91
:1052800002F04CFD606118EE100A03F0C7F941EC22
:10529000190B686803F0C2F941EC100B00F08CFBAD
:1052A00053EC192B51EC100B02F0C4FF41EC190B1D
:1052B00018EE900A03F0B2F941EC180B686803F09D
:1052C000ADF941EC100B00F077FB51EC100B02F044
:1052D00019FD53EC182B02F0ADFF53EC192B03F022
:1052E000B3F853EC1A2B02F0A5FF41EC180B206821
:1052F00003F094F953EC182B02F042FD02F00EFD7E
:1053000000EE100A84ED000AD4ED050A94ED041AAB
:1053100070EEC10AC4ED030AD4ED020A70EE600A11
:10532000C4ED010A87ED000A94ED050A86ED000A36
:10533000BDEC068BBDE8F08170210020D00F494004
:1053400000003443380100203C21002000409245F9
:10535000000000000000E03F70B51C4E1C462DED23
:10536000028BB0EE408A1060196096ED070A154670
:1053700038EE400A01F084FA96ED070A1449154AFE
:1053800038EE400A10EE103A8B4203DA10EE103A73
:10539000934205D32B6803442B6023681B1A2360B8
:1053A00096ED070A38EE400A10EE103A8B4209DA01
:1053B00010EE101A914205D22968091A2960216855
:1053C00008442060BDEC028B70BD000070210020FD
:1053D00000003443000034C303B401984100009836
:1053E00050EAC12018BF04204A0D18BF40F0010048
:1053F00040F2FF72B2EB515F08BF40F0020001289B
:1054000008BF052002B070470907090E002804DB19
:1054100000F1E02080F80014704700F00F0000F168
:10542000E02080F8141D704770B59B482DED020BED
:105430002DED068B079D25F00044A04218DC97480F
:10544000844202DC0AD1069840B19DED060BBDEC0A
:10545000068B02B0BDE8704000F0FABE002DCCBF54
:105460009FED8F0B9FED900BBDEC068B02B070BDD6
:105470008F48A04215DD8F48A042D8BF4FF0FF34BF
:1054800058DD9DED060B51EC100BFFF7A5FF04282E
:1054900008BF00F001FF9DED060BBDEC068B02B0CE
:1054A00070BD9DED060B51EC100B00F07FFFCDE9B8
:1054B000060181489FED828BA0423CDD8248A042DC
:1054C0001FDD00249FED82AB9DED060B53EC1A2BE4
:1054D00051EC100B02F054FC9DED060B41EC190B46
:1054E00053EC1A2B51EC100B02F0A4FE53EC182BCA
:1054F00002F0AAFF53EC192B02F0EAFCCDE90601F9
:1055000049E09DED060B012453EC182B51EC100BD8
:1055100002F036FC9DED060B41EC190B53EC182BF9
:1055200051EC100B02F090FF53EC192B02F0D0FC61
:10553000CDE906012FE06848A0421FDD02249FED5F
:10554000689B9DED060B53EC192B51EC100B02F0F0
:1055500071FE53EC182B02F013FC9DED060B41EC91
:10556000180B53EC192B51EC100B02F06DFF53ECA0
:10557000182B02F0ADFCCDE906010CE09DED060B09
:10558000032453EC102B9FED580B51EC100B02F041
:105590009FFCCDE906019DED060B53EC102B51EC61
:1055A000100B02F047FE41EC180B53EC182B02F0E5
:1055B00041FE41EC190B4E480621B0EE490AF0EECF
:1055C000690A784400F030FD53EC182B51EC100BB5
:1055D00002F030FE41EC180B4648B0EE490AF0EEFE
:1055E000690A0521784400F01FFD53EC192B51EC9A
:1055F000100B02F01FFE41EC100B51EC180B53EC9A
:10560000102B002C0EDA02F0BBFB9DED061B53ECB9
:10561000112B02F00FFE9DED061B53EC112B02F037
:1056200007FF35E002F0ACFB9DED061B53EC112BA0
:1056300002F000FE41EC100B2F48784400EBC40050
:1056400090ED001B51EC100B53EC112B02F0FCFE03
:105650009DED061B53EC112B02F0F6FE41EC100BF6
:105660002648784400EBC40090ED001B51EC100B71
:1056700053EC112B02F0DCFE41EC100B002DA2BF0D
:10568000BDEC068B02B070BD51EC100B02F03AFB82
:1056900041EC100B01E70000000010440000F07F17
:1056A000182D4454FB21F93F182D4454FB21F9BF18
:1056B0000000DC3F0000203E0000F33F000000003F
:1056C000000000000000F03F0000E63F0000000086
:1056D00000000000000000400080034000000000C7
:1056E000000000000000F83F000000000000F0BFD4
:1056F0007A32000030320000BA310000723100000E
:1057000070B56B4E2DED040B2DED028B82B0DDF8E4
:105710001CC0DDE905235C422CF000411C4341EA3A
:10572000D474049D22F00040B44205D86C422C434E
:1057300040EAD474B4420BD99DED061B9DED040BD9
:1057400002B0BDEC028B04B0BDE8704000F08ABD31
:10575000ACF14054A4F17F641C430BD0022404EA52
:10576000AC7444EAD27405439FED538B9FED542BE8
:1057700007D015E09DED040B51EC100B00F09CFDE3
:1057800042E0002C11BF012C9DED040B02B0BDECDA
:10579000028B04BF04B070BD022C38D0032C3BD068
:1057A0000B439FED491B9FED4A0B0AD0B14218D124
:1057B000B04209D121F0804120F08040079105904E
:1057C0000FE0002A15DA10E0434B7B44002C08BFA1
:1057D00093ED000B0DD0012C10D0022C17D0032C10
:1057E0001AD0B0421DD1002A03DAB0EE410AF0EE21
:1057F000610A02B0BDEC028B04B070BD93ED000BEA
:1058000051EC100B02F07EFA41EC100BF1E7B0EE18
:10581000480AF0EE680AECE7B0EE420AF0EE620ADF
:10582000E7E7401A00153C28C8BF8DED000B19DCD6
:10583000BCF1000FBEBF10F13C0F9FED290B8DEDA9
:10584000000B0FDB9DED060B53EC102B9DED040BB5
:1058500051EC100B02F03CFB00F0A8FD00F02CFD19
:10586000CDE90001002C08BF9DED000BC1D0012C3B
:1058700010D0022C9FED1C0B53EC102B9DED000B58
:1058800051EC100B0DD002F0DFFD53EC182B02F0A1
:10589000DBFDB9E7019880F0004001909DED000B21
:1058A000A7E702F0D1FD53EC182B02F0C1FDABE7E6
:1058B0000000F07F00000000182D4454FB21094037
:1058C000182D4454FB2109C0182D4454FB21F9BF65
:1058D000182D4454FB21F93FD23000000000000095
:1058E0000000000000000000075C143326A6A13C65
:1058F00010B52F499FED2C1B2DED020B84B00598A0
:1059000020F000408842D8BF9DED040B2DDD2949D1
:10591000884209D1049840B94FF00100FAF75BFEC4
:1059200000F0AAFC06B010BD05DB9DED040B00F0F5
:105930008FFC06B010BD68469DED040B00F0A0F88A
:1059400010F0030004BF9DED021B9DED000B0CD079
:1059500001280ED09DED021B9DED000B022817D0F3
:10596000012000F0DDFB06B010BD00F0A5FA06B086
:1059700010BD9DED021B9DED000B012000F0D0FB42
:1059800051EC100B02F0BEF906B041EC100B10BD4B
:1059900000F092FA51EC100B02F0B4F906B041ECB1
:1059A000100B10BD0000000000000000000000000F
:1059B000FB21E93F0000F07F10B52F499FED2C1B24
:1059C0002DED020B84B0059820F000408842DCBF2A
:1059D00000209DED040B32DD2849884209D104984E
:1059E00040B94FF00100FAF7F6FD00F045FC06B0B3
:1059F00010BD05DB9DED040B00F02AFC06B010BDC8
:105A000068469DED040B00F03BF810F0030011D048
:105A1000012818D09DED021B9DED000B02281AD025
:105A200000F04AFA51EC100B02F06CF906B041ECB0
:105A3000100B10BD9DED021B9DED000B012000F031
:105A40006FFB06B010BD9DED021B9DED000B00F03D
:105A500033FA06B010BD012000F062FB51EC100BD0
:105A600002F050F906B041EC100B10BD0000000030
:105A70000000000000000000FB21E93F0000F07F73
:105A80002DE9F14F04462DED020B2DED088B8AB068
:105A90009FEDE70B80ED020B139EE74826F00045D3
:105AA00085420ADC9DED120B002084ED000B0AB04C
:105AB000BDEC088B03B0BDE8F08FE0489FEDE0AB94
:105AC0009FEDE1BBA84247DDE14F9FEDE39B9FEDDA
:105AD000E48B9DED120B53EC1A2B51EC100B002EA6
